{
    "_format": "hh-sol-artifact-1",
    "contractName": "Domains",
    "sourceName": "contracts/Domains.sol",
    "abi": [
        {
            "inputs": [
                {
                    "internalType": "string",
                    "name": "_tld",
                    "type": "string"
                }
            ],
            "stateMutability": "payable",
            "type": "constructor"
        },
        {
            "anonymous": false,
            "inputs": [
                {
                    "indexed": true,
                    "internalType": "address",
                    "name": "owner",
                    "type": "address"
                },
                {
                    "indexed": true,
                    "internalType": "address",
                    "name": "approved",
                    "type": "address"
                },
                {
                    "indexed": true,
                    "internalType": "uint256",
                    "name": "tokenId",
                    "type": "uint256"
                }
            ],
            "name": "Approval",
            "type": "event"
        },
        {
            "anonymous": false,
            "inputs": [
                {
                    "indexed": true,
                    "internalType": "address",
                    "name": "owner",
                    "type": "address"
                },
                {
                    "indexed": true,
                    "internalType": "address",
                    "name": "operator",
                    "type": "address"
                },
                {
                    "indexed": false,
                    "internalType": "bool",
                    "name": "approved",
                    "type": "bool"
                }
            ],
            "name": "ApprovalForAll",
            "type": "event"
        },
        {
            "anonymous": false,
            "inputs": [
                {
                    "indexed": true,
                    "internalType": "address",
                    "name": "from",
                    "type": "address"
                },
                {
                    "indexed": true,
                    "internalType": "address",
                    "name": "to",
                    "type": "address"
                },
                {
                    "indexed": true,
                    "internalType": "uint256",
                    "name": "tokenId",
                    "type": "uint256"
                }
            ],
            "name": "Transfer",
            "type": "event"
        },
        {
            "inputs": [
                {
                    "internalType": "address",
                    "name": "to",
                    "type": "address"
                },
                {
                    "internalType": "uint256",
                    "name": "tokenId",
                    "type": "uint256"
                }
            ],
            "name": "approve",
            "outputs": [],
            "stateMutability": "nonpayable",
            "type": "function"
        },
        {
            "inputs": [
                {
                    "internalType": "string",
                    "name": "name",
                    "type": "string"
                },
                {
                    "internalType": "string[]",
                    "name": "data",
                    "type": "string[]"
                }
            ],
            "name": "attachDataToDomain",
            "outputs": [],
            "stateMutability": "nonpayable",
            "type": "function"
        },
        {
            "inputs": [
                {
                    "internalType": "address",
                    "name": "owner",
                    "type": "address"
                }
            ],
            "name": "balanceOf",
            "outputs": [
                {
                    "internalType": "uint256",
                    "name": "",
                    "type": "uint256"
                }
            ],
            "stateMutability": "view",
            "type": "function"
        },
        {
            "inputs": [
                {
                    "internalType": "string",
                    "name": "name",
                    "type": "string"
                }
            ],
            "name": "domainPrice",
            "outputs": [
                {
                    "internalType": "uint256",
                    "name": "",
                    "type": "uint256"
                }
            ],
            "stateMutability": "nonpayable",
            "type": "function"
        },
        {
            "inputs": [
                {
                    "internalType": "string",
                    "name": "",
                    "type": "string"
                }
            ],
            "name": "domains",
            "outputs": [
                {
                    "internalType": "address",
                    "name": "",
                    "type": "address"
                }
            ],
            "stateMutability": "view",
            "type": "function"
        },
        {
            "inputs": [
                {
                    "internalType": "uint256",
                    "name": "tokenId",
                    "type": "uint256"
                }
            ],
            "name": "getApproved",
            "outputs": [
                {
                    "internalType": "address",
                    "name": "",
                    "type": "address"
                }
            ],
            "stateMutability": "view",
            "type": "function"
        },
        {
            "inputs": [
                {
                    "internalType": "string",
                    "name": "name",
                    "type": "string"
                }
            ],
            "name": "getData",
            "outputs": [
                {
                    "internalType": "string[]",
                    "name": "",
                    "type": "string[]"
                }
            ],
            "stateMutability": "view",
            "type": "function"
        },
        {
            "inputs": [
                {
                    "internalType": "string",
                    "name": "name",
                    "type": "string"
                }
            ],
            "name": "getDomain",
            "outputs": [
                {
                    "internalType": "address",
                    "name": "",
                    "type": "address"
                }
            ],
            "stateMutability": "view",
            "type": "function"
        },
        {
            "inputs": [
                {
                    "internalType": "address",
                    "name": "owner",
                    "type": "address"
                },
                {
                    "internalType": "address",
                    "name": "operator",
                    "type": "address"
                }
            ],
            "name": "isApprovedForAll",
            "outputs": [
                {
                    "internalType": "bool",
                    "name": "",
                    "type": "bool"
                }
            ],
            "stateMutability": "view",
            "type": "function"
        },
        {
            "inputs": [],
            "name": "name",
            "outputs": [
                {
                    "internalType": "string",
                    "name": "",
                    "type": "string"
                }
            ],
            "stateMutability": "view",
            "type": "function"
        },
        {
            "inputs": [
                {
                    "internalType": "uint256",
                    "name": "tokenId",
                    "type": "uint256"
                }
            ],
            "name": "ownerOf",
            "outputs": [
                {
                    "internalType": "address",
                    "name": "",
                    "type": "address"
                }
            ],
            "stateMutability": "view",
            "type": "function"
        },
        {
            "inputs": [],
            "name": "price",
            "outputs": [
                {
                    "internalType": "uint256",
                    "name": "",
                    "type": "uint256"
                }
            ],
            "stateMutability": "view",
            "type": "function"
        },
        {
            "inputs": [
                {
                    "internalType": "string",
                    "name": "",
                    "type": "string"
                },
                {
                    "internalType": "uint256",
                    "name": "",
                    "type": "uint256"
                }
            ],
            "name": "records",
            "outputs": [
                {
                    "internalType": "string",
                    "name": "",
                    "type": "string"
                }
            ],
            "stateMutability": "view",
            "type": "function"
        },
        {
            "inputs": [
                {
                    "internalType": "string",
                    "name": "name",
                    "type": "string"
                }
            ],
            "name": "register",
            "outputs": [],
            "stateMutability": "payable",
            "type": "function"
        },
        {
            "inputs": [
                {
                    "internalType": "address",
                    "name": "from",
                    "type": "address"
                },
                {
                    "internalType": "address",
                    "name": "to",
                    "type": "address"
                },
                {
                    "internalType": "uint256",
                    "name": "tokenId",
                    "type": "uint256"
                }
            ],
            "name": "safeTransferFrom",
            "outputs": [],
            "stateMutability": "nonpayable",
            "type": "function"
        },
        {
            "inputs": [
                {
                    "internalType": "address",
                    "name": "from",
                    "type": "address"
                },
                {
                    "internalType": "address",
                    "name": "to",
                    "type": "address"
                },
                {
                    "internalType": "uint256",
                    "name": "tokenId",
                    "type": "uint256"
                },
                {
                    "internalType": "bytes",
                    "name": "_data",
                    "type": "bytes"
                }
            ],
            "name": "safeTransferFrom",
            "outputs": [],
            "stateMutability": "nonpayable",
            "type": "function"
        },
        {
            "inputs": [
                {
                    "internalType": "address",
                    "name": "operator",
                    "type": "address"
                },
                {
                    "internalType": "bool",
                    "name": "approved",
                    "type": "bool"
                }
            ],
            "name": "setApprovalForAll",
            "outputs": [],
            "stateMutability": "nonpayable",
            "type": "function"
        },
        {
            "inputs": [
                {
                    "internalType": "bytes4",
                    "name": "interfaceId",
                    "type": "bytes4"
                }
            ],
            "name": "supportsInterface",
            "outputs": [
                {
                    "internalType": "bool",
                    "name": "",
                    "type": "bool"
                }
            ],
            "stateMutability": "view",
            "type": "function"
        },
        {
            "inputs": [],
            "name": "symbol",
            "outputs": [
                {
                    "internalType": "string",
                    "name": "",
                    "type": "string"
                }
            ],
            "stateMutability": "view",
            "type": "function"
        },
        {
            "inputs": [
                {
                    "internalType": "uint256",
                    "name": "tokenId",
                    "type": "uint256"
                }
            ],
            "name": "tokenURI",
            "outputs": [
                {
                    "internalType": "string",
                    "name": "",
                    "type": "string"
                }
            ],
            "stateMutability": "view",
            "type": "function"
        },
        {
            "inputs": [
                {
                    "internalType": "address",
                    "name": "from",
                    "type": "address"
                },
                {
                    "internalType": "address",
                    "name": "to",
                    "type": "address"
                },
                {
                    "internalType": "uint256",
                    "name": "tokenId",
                    "type": "uint256"
                }
            ],
            "name": "transferFrom",
            "outputs": [],
            "stateMutability": "nonpayable",
            "type": "function"
        }
    ],
    "bytecode": "0x6080604052604051806108a0016040528061086b8152602001620050ad61086b9139600a90805190602001906200003892919062000407565b506040518060400160405280600d81526020017f3c2f746578743e3c2f7376673e00000000000000000000000000000000000000815250600b90805190602001906200008692919062000407565b5060405162005918380380620059188339818101604052810190620000ac919062000654565b6040518060400160405280601281526020017f5368696e65204e616d65205365727669636500000000000000000000000000008152506040518060400160405280600381526020017f534e53000000000000000000000000000000000000000000000000000000000081525081600090805190602001906200013092919062000407565b5080600190805190602001906200014992919062000407565b505050620001976040518060400160405280602081526020017f57656c636f6d6520746f206e616d69667920646f6d61696e20736572766963658152506200029560201b620015c91760201c565b8060089080519060200190620001af92919062000407565b506200028e6040518060400160405280601b81526020017f546f702d6c6576656c20646f6d61696e206973207365742061733a000000000081525060088054620001f990620006d4565b80601f01602080910402602001604051908101604052809291908181526020018280546200022790620006d4565b8015620002785780601f106200024c5761010080835404028352916020019162000278565b820191906000526020600020905b8154815290600101906020018083116200025a57829003601f168201915b50505050506200033860201b620016621760201c565b50620007c6565b6200033581604051602401620002ac919062000767565b6040516020818303038152906040527f41304fac000000000000000000000000000000000000000000000000000000007bffffffffffffffffffffffffffffffffffffffffffffffffffffffff19166020820180517bffffffffffffffffffffffffffffffffffffffffffffffffffffffff8381831617835250505050620003de60201b60201c565b50565b620003da8282604051602401620003519291906200078b565b6040516020818303038152906040527f4b5c4277000000000000000000000000000000000000000000000000000000007bffffffffffffffffffffffffffffffffffffffffffffffffffffffff19166020820180517bffffffffffffffffffffffffffffffffffffffffffffffffffffffff8381831617835250505050620003de60201b60201c565b5050565b60008151905060006a636f6e736f6c652e6c6f679050602083016000808483855afa5050505050565b8280546200041590620006d4565b90600052602060002090601f01602090048101928262000439576000855562000485565b82601f106200045457805160ff191683800117855562000485565b8280016001018555821562000485579182015b828111156200048457825182559160200191906001019062000467565b5b50905062000494919062000498565b5090565b5b80821115620004b357600081600090555060010162000499565b5090565b6000604051905090565b600080fd5b600080fd5b600080fd5b600080fd5b6000601f19601f8301169050919050565b7f4e487b7100000000000000000000000000000000000000000000000000000000600052604160045260246000fd5b6200052082620004d5565b810181811067ffffffffffffffff82111715620005425762000541620004e6565b5b80604052505050565b600062000557620004b7565b905062000565828262000515565b919050565b600067ffffffffffffffff821115620005885762000587620004e6565b5b6200059382620004d5565b9050602081019050919050565b60005b83811015620005c0578082015181840152602081019050620005a3565b83811115620005d0576000848401525b50505050565b6000620005ed620005e7846200056a565b6200054b565b9050828152602081018484840111156200060c576200060b620004d0565b5b62000619848285620005a0565b509392505050565b600082601f830112620006395762000638620004cb565b5b81516200064b848260208601620005d6565b91505092915050565b6000602082840312156200066d576200066c620004c1565b5b600082015167ffffffffffffffff8111156200068e576200068d620004c6565b5b6200069c8482850162000621565b91505092915050565b7f4e487b7100000000000000000000000000000000000000000000000000000000600052602260045260246000fd5b60006002820490506001821680620006ed57607f821691505b60208210811415620007045762000703620006a5565b5b50919050565b600081519050919050565b600082825260208201905092915050565b600062000733826200070a565b6200073f818562000715565b935062000751818560208601620005a0565b6200075c81620004d5565b840191505092915050565b6000602082019050818103600083015262000783818462000726565b905092915050565b60006040820190508181036000830152620007a7818562000726565b90508181036020830152620007bd818462000726565b90509392505050565b6148d780620007d66000396000f3fe60806040526004361061012a5760003560e01c806395d89b41116100ab578063b88d4fde1161006f578063b88d4fde14610428578063c87b56dd14610451578063e985e9c51461048e578063ecdd04da146104cb578063f2c298be14610508578063ffeac8ec146105245761012a565b806395d89b4114610343578063a035b1fe1461036e578063a22cb46514610399578063adcf4204146103c2578063ae55c888146103eb5761012a565b806326449235116100f257806326449235146102265780633b51650d1461026357806342842e0e146102a05780636352211e146102c957806370a08231146103065761012a565b806301ffc9a71461012f57806306fdde031461016c578063081812fc14610197578063095ea7b3146101d457806323b872dd146101fd575b600080fd5b34801561013b57600080fd5b5061015660048036038101906101519190612ae9565b610561565b6040516101639190612b31565b60405180910390f35b34801561017857600080fd5b50610181610643565b60405161018e9190612be5565b60405180910390f35b3480156101a357600080fd5b506101be60048036038101906101b99190612c3d565b6106d5565b6040516101cb9190612cab565b60405180910390f35b3480156101e057600080fd5b506101fb60048036038101906101f69190612cf2565b61075a565b005b34801561020957600080fd5b50610224600480360381019061021f9190612d32565b610872565b005b34801561023257600080fd5b5061024d60048036038101906102489190612eba565b6108d2565b60405161025a9190612cab565b60405180910390f35b34801561026f57600080fd5b5061028a60048036038101906102859190612f03565b61091b565b6040516102979190612be5565b60405180910390f35b3480156102ac57600080fd5b506102c760048036038101906102c29190612d32565b6109ea565b005b3480156102d557600080fd5b506102f060048036038101906102eb9190612c3d565b610a0a565b6040516102fd9190612cab565b60405180910390f35b34801561031257600080fd5b5061032d60048036038101906103289190612f5f565b610abc565b60405161033a9190612f9b565b60405180910390f35b34801561034f57600080fd5b50610358610b74565b6040516103659190612be5565b60405180910390f35b34801561037a57600080fd5b50610383610c06565b6040516103909190612f9b565b60405180910390f35b3480156103a557600080fd5b506103c060048036038101906103bb9190612fe2565b610c0c565b005b3480156103ce57600080fd5b506103e960048036038101906103e49190613163565b610c22565b005b3480156103f757600080fd5b50610412600480360381019061040d91906131df565b610d0a565b60405161041f9190613338565b60405180910390f35b34801561043457600080fd5b5061044f600480360381019061044a91906133fb565b610e04565b005b34801561045d57600080fd5b5061047860048036038101906104739190612c3d565b610e66565b6040516104859190612be5565b60405180910390f35b34801561049a57600080fd5b506104b560048036038101906104b0919061347e565b610fb8565b6040516104c29190612b31565b60405180910390f35b3480156104d757600080fd5b506104f260048036038101906104ed91906131df565b61104c565b6040516104ff9190612cab565b60405180910390f35b610522600480360381019061051d91906131df565b611097565b005b34801561053057600080fd5b5061054b600480360381019061054691906131df565b6114d0565b6040516105589190612f9b565b60405180910390f35b60007f80ac58cd000000000000000000000000000000000000000000000000000000007bffffffffffffffffffffffffffffffffffffffffffffffffffffffff1916827bffffffffffffffffffffffffffffffffffffffffffffffffffffffff1916148061062c57507f5b5e139f000000000000000000000000000000000000000000000000000000007bffffffffffffffffffffffffffffffffffffffffffffffffffffffff1916827bffffffffffffffffffffffffffffffffffffffffffffffffffffffff1916145b8061063c575061063b826116fe565b5b9050919050565b606060008054610652906134ed565b80601f016020809104026020016040519081016040528092919081815260200182805461067e906134ed565b80156106cb5780601f106106a0576101008083540402835291602001916106cb565b820191906000526020600020905b8154815290600101906020018083116106ae57829003601f168201915b5050505050905090565b60006106e082611768565b61071f576040517f08c379a000000000000000000000000000000000000000000000000000000000815260040161071690613591565b60405180910390fd5b6004600083815260200190815260200160002060009054906101000a900473ffffffffffffffffffffffffffffffffffffffff169050919050565b600061076582610a0a565b90508073ffffffffffffffffffffffffffffffffffffffff168373ffffffffffffffffffffffffffffffffffffffff1614156107d6576040517f08c379a00000000000000000000000000000000000000000000000000000000081526004016107cd90613623565b60405180910390fd5b8073ffffffffffffffffffffffffffffffffffffffff166107f56117d4565b73ffffffffffffffffffffffffffffffffffffffff16148061082457506108238161081e6117d4565b610fb8565b5b610863576040517f08c379a000000000000000000000000000000000000000000000000000000000815260040161085a906136b5565b60405180910390fd5b61086d83836117dc565b505050565b61088361087d6117d4565b82611895565b6108c2576040517f08c379a00000000000000000000000000000000000000000000000000000000081526004016108b990613747565b60405180910390fd5b6108cd838383611973565b505050565b600d818051602081018201805184825260208301602085012081835280955050505050506000915054906101000a900473ffffffffffffffffffffffffffffffffffffffff1681565b600e82805160208101820180518482526020830160208501208183528095505050505050818154811061094d57600080fd5b90600052602060002001600091509150508054610969906134ed565b80601f0160208091040260200160405190810160405280929190818152602001828054610995906134ed565b80156109e25780601f106109b7576101008083540402835291602001916109e2565b820191906000526020600020905b8154815290600101906020018083116109c557829003601f168201915b505050505081565b610a0583838360405180602001604052806000815250610e04565b505050565b6000806002600084815260200190815260200160002060009054906101000a900473ffffffffffffffffffffffffffffffffffffffff169050600073ffffffffffffffffffffffffffffffffffffffff168173ffffffffffffffffffffffffffffffffffffffff161415610ab3576040517f08c379a0000000000000000000000000000000000000000000000000000000008152600401610aaa906137d9565b60405180910390fd5b80915050919050565b60008073ffffffffffffffffffffffffffffffffffffffff168273ffffffffffffffffffffffffffffffffffffffff161415610b2d576040517f08c379a0000000000000000000000000000000000000000000000000000000008152600401610b249061386b565b60405180910390fd5b600360008373ffffffffffffffffffffffffffffffffffffffff1673ffffffffffffffffffffffffffffffffffffffff168152602001908152602001600020549050919050565b606060018054610b83906134ed565b80601f0160208091040260200160405190810160405280929190818152602001828054610baf906134ed565b8015610bfc5780601f10610bd157610100808354040283529160200191610bfc565b820191906000526020600020905b815481529060010190602001808311610bdf57829003601f168201915b5050505050905090565b60095481565b610c1e610c176117d4565b8383611bda565b5050565b3373ffffffffffffffffffffffffffffffffffffffff16600d8484604051610c4b9291906138bb565b908152602001604051809103902060009054906101000a900473ffffffffffffffffffffffffffffffffffffffff1673ffffffffffffffffffffffffffffffffffffffff1614610cd0576040517f08c379a0000000000000000000000000000000000000000000000000000000008152600401610cc790613946565b60405180910390fd5b80600e8484604051610ce39291906138bb565b90815260200160405180910390209080519060200190610d04929190612916565b50505050565b6060600e8383604051610d1e9291906138bb565b9081526020016040518091039020805480602002602001604051908101604052809291908181526020016000905b82821015610df8578382906000526020600020018054610d6b906134ed565b80601f0160208091040260200160405190810160405280929190818152602001828054610d97906134ed565b8015610de45780601f10610db957610100808354040283529160200191610de4565b820191906000526020600020905b815481529060010190602001808311610dc757829003601f168201915b505050505081526020019060010190610d4c565b50505050905092915050565b610e15610e0f6117d4565b83611895565b610e54576040517f08c379a0000000000000000000000000000000000000000000000000000000008152600401610e4b90613747565b60405180910390fd5b610e6084848484611d47565b50505050565b6060610e7182611768565b610eb0576040517f08c379a0000000000000000000000000000000000000000000000000000000008152600401610ea7906139d8565b60405180910390fd5b6000600660008481526020019081526020016000208054610ed0906134ed565b80601f0160208091040260200160405190810160405280929190818152602001828054610efc906134ed565b8015610f495780601f10610f1e57610100808354040283529160200191610f49565b820191906000526020600020905b815481529060010190602001808311610f2c57829003601f168201915b505050505090506000610f5a611da3565b9050600081511415610f70578192505050610fb3565b600082511115610fa5578082604051602001610f8d929190613a29565b60405160208183030381529060405292505050610fb3565b610fae84611dba565b925050505b919050565b6000600560008473ffffffffffffffffffffffffffffffffffffffff1673ffffffffffffffffffffffffffffffffffffffff16815260200190815260200160002060008373ffffffffffffffffffffffffffffffffffffffff1673ffffffffffffffffffffffffffffffffffffffff16815260200190815260200160002060009054906101000a900460ff16905092915050565b6000600d83836040516110609291906138bb565b908152602001604051809103902060009054906101000a900473ffffffffffffffffffffffffffffffffffffffff16905092915050565b600073ffffffffffffffffffffffffffffffffffffffff16600d83836040516110c19291906138bb565b908152602001604051809103902060009054906101000a900473ffffffffffffffffffffffffffffffffffffffff1673ffffffffffffffffffffffffffffffffffffffff1614611146576040517f08c379a000000000000000000000000000000000000000000000000000000000815260040161113d90613abf565b60405180910390fd5b600061115283836114d0565b905080341015611197576040517f08c379a000000000000000000000000000000000000000000000000000000000815260040161118e90613b2b565b60405180910390fd5b6000838360086040516020016111af93929190613c2b565b60405160208183030381529060405290506000600a82600b6040516020016111d993929190613c5c565b604051602081830303815290604052905060006111f66007611e61565b9050600061124787878080601f016020809104026020016040519081016040528093929190818152602001838380828437600081840152601f19601f82011690508083019250505050505050611e6f565b9050600061125482612024565b90506113486040518060600160405280603181526020016148316031913989898080601f016020809104026020016040519081016040528093929190818152602001838380828437600081840152601f19601f82011690508083019250505050505050600880546112c4906134ed565b80601f01602080910402602001604051908101604052809291908181526020018280546112f0906134ed565b801561133d5780601f106113125761010080835404028352916020019161133d565b820191906000526020600020905b81548152906001019060200180831161132057829003601f168201915b505050505086612185565b600061137e8661135787612227565b8460405160200161136a93929190613e09565b604051602081830303815290604052612227565b90506000816040516020016113939190613eb2565b60405160208183030381529060405290506113ae33866123bf565b6113b885826123dd565b6113d96040518060600160405280603981526020016147f8603991396115c9565b6113fb6040518060600160405280602181526020016147d76021913982611662565b33600d8b8b60405161140e9291906138bb565b908152602001604051809103902060006101000a81548173ffffffffffffffffffffffffffffffffffffffff021916908373ffffffffffffffffffffffffffffffffffffffff16021790555061147b6040518060600160405280603981526020016147f8603991396115c9565b6114856007612451565b6114c4336040518060400160405280602081526020017f20596f757220646f6d61696e20686173206265656e2072656769737465726564815250612467565b50505050505050505050565b60008061152084848080601f016020809104026020016040519081016040528093929190818152602001838380828437600081840152601f19601f82011690508083019250505050505050611e6f565b90506000811415611566576040517f08c379a000000000000000000000000000000000000000000000000000000000815260040161155d90613f46565b60405180910390fd5b60038111611582576702c68af0bb1400006009819055506115bd565b600381118015611593575060058111155b156115ac5767016345785d8a00006009819055506115bc565b670de0b6b3a76400006009819055505b5b60095491505092915050565b61165f816040516024016115dd9190612be5565b6040516020818303038152906040527f41304fac000000000000000000000000000000000000000000000000000000007bffffffffffffffffffffffffffffffffffffffffffffffffffffffff19166020820180517bffffffffffffffffffffffffffffffffffffffffffffffffffffffff8381831617835250505050612503565b50565b6116fa8282604051602401611678929190613f66565b6040516020818303038152906040527f4b5c4277000000000000000000000000000000000000000000000000000000007bffffffffffffffffffffffffffffffffffffffffffffffffffffffff19166020820180517bffffffffffffffffffffffffffffffffffffffffffffffffffffffff8381831617835250505050612503565b5050565b60007f01ffc9a7000000000000000000000000000000000000000000000000000000007bffffffffffffffffffffffffffffffffffffffffffffffffffffffff1916827bffffffffffffffffffffffffffffffffffffffffffffffffffffffff1916149050919050565b60008073ffffffffffffffffffffffffffffffffffffffff166002600084815260200190815260200160002060009054906101000a900473ffffffffffffffffffffffffffffffffffffffff1673ffffffffffffffffffffffffffffffffffffffff1614159050919050565b600033905090565b816004600083815260200190815260200160002060006101000a81548173ffffffffffffffffffffffffffffffffffffffff021916908373ffffffffffffffffffffffffffffffffffffffff160217905550808273ffffffffffffffffffffffffffffffffffffffff1661184f83610a0a565b73ffffffffffffffffffffffffffffffffffffffff167f8c5be1e5ebec7d5bd14f71427d1e84f3dd0314c0f7b2291e5b200ac8c7c3b92560405160405180910390a45050565b60006118a082611768565b6118df576040517f08c379a00000000000000000000000000000000000000000000000000000000081526004016118d69061400f565b60405180910390fd5b60006118ea83610a0a565b90508073ffffffffffffffffffffffffffffffffffffffff168473ffffffffffffffffffffffffffffffffffffffff16148061192c575061192b8185610fb8565b5b8061196a57508373ffffffffffffffffffffffffffffffffffffffff16611952846106d5565b73ffffffffffffffffffffffffffffffffffffffff16145b91505092915050565b8273ffffffffffffffffffffffffffffffffffffffff1661199382610a0a565b73ffffffffffffffffffffffffffffffffffffffff16146119e9576040517f08c379a00000000000000000000000000000000000000000000000000000000081526004016119e0906140a1565b60405180910390fd5b600073ffffffffffffffffffffffffffffffffffffffff168273ffffffffffffffffffffffffffffffffffffffff161415611a59576040517f08c379a0000000000000000000000000000000000000000000000000000000008152600401611a5090614133565b60405180910390fd5b611a6483838361252c565b611a6f6000826117dc565b6001600360008573ffffffffffffffffffffffffffffffffffffffff1673ffffffffffffffffffffffffffffffffffffffff1681526020019081526020016000206000828254611abf9190614182565b925050819055506001600360008473ffffffffffffffffffffffffffffffffffffffff1673ffffffffffffffffffffffffffffffffffffffff1681526020019081526020016000206000828254611b1691906141b6565b92505081905550816002600083815260200190815260200160002060006101000a81548173ffffffffffffffffffffffffffffffffffffffff021916908373ffffffffffffffffffffffffffffffffffffffff160217905550808273ffffffffffffffffffffffffffffffffffffffff168473ffffffffffffffffffffffffffffffffffffffff167fddf252ad1be2c89b69c2b068fc378daa952ba7f163c4a11628f55a4df523b3ef60405160405180910390a4611bd5838383612531565b505050565b8173ffffffffffffffffffffffffffffffffffffffff168373ffffffffffffffffffffffffffffffffffffffff161415611c49576040517f08c379a0000000000000000000000000000000000000000000000000000000008152600401611c4090614258565b60405180910390fd5b80600560008573ffffffffffffffffffffffffffffffffffffffff1673ffffffffffffffffffffffffffffffffffffffff16815260200190815260200160002060008473ffffffffffffffffffffffffffffffffffffffff1673ffffffffffffffffffffffffffffffffffffffff16815260200190815260200160002060006101000a81548160ff0219169083151502179055508173ffffffffffffffffffffffffffffffffffffffff168373ffffffffffffffffffffffffffffffffffffffff167f17307eab39ab6107e8899845ad3d59bd9653f200f220920489ca2b5937696c3183604051611d3a9190612b31565b60405180910390a3505050565b611d52848484611973565b611d5e84848484612536565b611d9d576040517f08c379a0000000000000000000000000000000000000000000000000000000008152600401611d94906142ea565b60405180910390fd5b50505050565b606060405180602001604052806000815250905090565b6060611dc582611768565b611e04576040517f08c379a0000000000000000000000000000000000000000000000000000000008152600401611dfb9061437c565b60405180910390fd5b6000611e0e611da3565b90506000815111611e2e5760405180602001604052806000815250611e59565b80611e3884612024565b604051602001611e49929190613a29565b6040516020818303038152906040525b915050919050565b600081600001549050919050565b60008060008084519050600092505b80821015612019576000858381518110611e9b57611e9a61439c565b5b602001015160f81c60f81b9050608060f81b817effffffffffffffffffffffffffffffffffffffffffffffffffffffffffffff19161015611eea57600183611ee391906141b6565b9250612005565b60e060f81b817effffffffffffffffffffffffffffffffffffffffffffffffffffffffffffff19161015611f2c57600283611f2591906141b6565b9250612004565b60f060f81b817effffffffffffffffffffffffffffffffffffffffffffffffffffffffffffff19161015611f6e57600383611f6791906141b6565b9250612003565b60f8801b817effffffffffffffffffffffffffffffffffffffffffffffffffffffffffffff19161015611faf57600483611fa891906141b6565b9250612002565b60fc60f81b817effffffffffffffffffffffffffffffffffffffffffffffffffffffffffffff19161015611ff157600583611fea91906141b6565b9250612001565b600683611ffe91906141b6565b92505b5b5b5b5b508280612011906143cb565b935050611e7e565b829350505050919050565b6060600082141561206c576040518060400160405280600181526020017f30000000000000000000000000000000000000000000000000000000000000008152509050612180565b600082905060005b6000821461209e578080612087906143cb565b915050600a826120979190614443565b9150612074565b60008167ffffffffffffffff8111156120ba576120b9612d8f565b5b6040519080825280601f01601f1916602001820160405280156120ec5781602001600182028036833780820191505090505b5090505b60008514612179576001826121059190614182565b9150600a856121149190614474565b603061212091906141b6565b60f81b8183815181106121365761213561439c565b5b60200101907effffffffffffffffffffffffffffffffffffffffffffffffffffffffffffff1916908160001a905350600a856121729190614443565b94506120f0565b8093505050505b919050565b6122218484848460405160240161219f94939291906144a5565b6040516020818303038152906040527f9fd009f5000000000000000000000000000000000000000000000000000000007bffffffffffffffffffffffffffffffffffffffffffffffffffffffff19166020820180517bffffffffffffffffffffffffffffffffffffffffffffffffffffffff8381831617835250505050612503565b50505050565b6060600082519050600081141561225057604051806020016040528060008152509150506123ba565b6000600360028361226191906141b6565b61226b9190614443565b600461227791906144ff565b9050600060208261228891906141b6565b67ffffffffffffffff8111156122a1576122a0612d8f565b5b6040519080825280601f01601f1916602001820160405280156122d35781602001600182028036833780820191505090505b5090506000604051806060016040528060408152602001614862604091399050600181016020830160005b868110156123775760038101905062ffffff818a015116603f8160121c168401518060081b905060ff603f83600c1c1686015116810190508060081b905060ff603f8360061c1686015116810190508060081b905060ff603f831686015116810190508060e01b905080845260048401935050506122fe565b50600386066001811461239157600281146123a1576123ac565b613d3d60f01b60028303526123ac565b603d60f81b60018303525b508484525050819450505050505b919050565b6123d98282604051806020016040528060008152506126be565b5050565b6123e682611768565b612425576040517f08c379a000000000000000000000000000000000000000000000000000000000815260040161241c906145cb565b60405180910390fd5b8060066000848152602001908152602001600020908051906020019061244c929190612976565b505050565b6001816000016000828254019250508190555050565b6124ff828260405160240161247d9291906145eb565b6040516020818303038152906040527f759f86bb000000000000000000000000000000000000000000000000000000007bffffffffffffffffffffffffffffffffffffffffffffffffffffffff19166020820180517bffffffffffffffffffffffffffffffffffffffffffffffffffffffff8381831617835250505050612503565b5050565b60008151905060006a636f6e736f6c652e6c6f679050602083016000808483855afa5050505050565b505050565b505050565b60006125578473ffffffffffffffffffffffffffffffffffffffff16612719565b156126b1578373ffffffffffffffffffffffffffffffffffffffff1663150b7a026125806117d4565b8786866040518563ffffffff1660e01b81526004016125a29493929190614670565b6020604051808303816000875af19250505080156125de57506040513d601f19601f820116820180604052508101906125db91906146d1565b60015b612661573d806000811461260e576040519150601f19603f3d011682016040523d82523d6000602084013e612613565b606091505b50600081511415612659576040517f08c379a0000000000000000000000000000000000000000000000000000000008152600401612650906142ea565b60405180910390fd5b805181602001fd5b63150b7a0260e01b7bffffffffffffffffffffffffffffffffffffffffffffffffffffffff1916817bffffffffffffffffffffffffffffffffffffffffffffffffffffffff1916149150506126b6565b600190505b949350505050565b6126c8838361273c565b6126d56000848484612536565b612714576040517f08c379a000000000000000000000000000000000000000000000000000000000815260040161270b906142ea565b60405180910390fd5b505050565b6000808273ffffffffffffffffffffffffffffffffffffffff163b119050919050565b600073ffffffffffffffffffffffffffffffffffffffff168273ffffffffffffffffffffffffffffffffffffffff1614156127ac576040517f08c379a00000000000000000000000000000000000000000000000000000000081526004016127a39061474a565b60405180910390fd5b6127b581611768565b156127f5576040517f08c379a00000000000000000000000000000000000000000000000000000000081526004016127ec906147b6565b60405180910390fd5b6128016000838361252c565b6001600360008473ffffffffffffffffffffffffffffffffffffffff1673ffffffffffffffffffffffffffffffffffffffff168152602001908152602001600020600082825461285191906141b6565b92505081905550816002600083815260200190815260200160002060006101000a81548173ffffffffffffffffffffffffffffffffffffffff021916908373ffffffffffffffffffffffffffffffffffffffff160217905550808273ffffffffffffffffffffffffffffffffffffffff16600073ffffffffffffffffffffffffffffffffffffffff167fddf252ad1be2c89b69c2b068fc378daa952ba7f163c4a11628f55a4df523b3ef60405160405180910390a461291260008383612531565b5050565b828054828255906000526020600020908101928215612965579160200282015b82811115612964578251829080519060200190612954929190612976565b5091602001919060010190612936565b5b50905061297291906129fc565b5090565b828054612982906134ed565b90600052602060002090601f0160209004810192826129a457600085556129eb565b82601f106129bd57805160ff19168380011785556129eb565b828001600101855582156129eb579182015b828111156129ea5782518255916020019190600101906129cf565b5b5090506129f89190612a20565b5090565b5b80821115612a1c5760008181612a139190612a3d565b506001016129fd565b5090565b5b80821115612a39576000816000905550600101612a21565b5090565b508054612a49906134ed565b6000825580601f10612a5b5750612a7a565b601f016020900490600052602060002090810190612a799190612a20565b5b50565b6000604051905090565b600080fd5b600080fd5b60007fffffffff0000000000000000000000000000000000000000000000000000000082169050919050565b612ac681612a91565b8114612ad157600080fd5b50565b600081359050612ae381612abd565b92915050565b600060208284031215612aff57612afe612a87565b5b6000612b0d84828501612ad4565b91505092915050565b60008115159050919050565b612b2b81612b16565b82525050565b6000602082019050612b466000830184612b22565b92915050565b600081519050919050565b600082825260208201905092915050565b60005b83811015612b86578082015181840152602081019050612b6b565b83811115612b95576000848401525b50505050565b6000601f19601f8301169050919050565b6000612bb782612b4c565b612bc18185612b57565b9350612bd1818560208601612b68565b612bda81612b9b565b840191505092915050565b60006020820190508181036000830152612bff8184612bac565b905092915050565b6000819050919050565b612c1a81612c07565b8114612c2557600080fd5b50565b600081359050612c3781612c11565b92915050565b600060208284031215612c5357612c52612a87565b5b6000612c6184828501612c28565b91505092915050565b600073ffffffffffffffffffffffffffffffffffffffff82169050919050565b6000612c9582612c6a565b9050919050565b612ca581612c8a565b82525050565b6000602082019050612cc06000830184612c9c565b92915050565b612ccf81612c8a565b8114612cda57600080fd5b50565b600081359050612cec81612cc6565b92915050565b60008060408385031215612d0957612d08612a87565b5b6000612d1785828601612cdd565b9250506020612d2885828601612c28565b9150509250929050565b600080600060608486031215612d4b57612d4a612a87565b5b6000612d5986828701612cdd565b9350506020612d6a86828701612cdd565b9250506040612d7b86828701612c28565b9150509250925092565b600080fd5b600080fd5b7f4e487b7100000000000000000000000000000000000000000000000000000000600052604160045260246000fd5b612dc782612b9b565b810181811067ffffffffffffffff82111715612de657612de5612d8f565b5b80604052505050565b6000612df9612a7d565b9050612e058282612dbe565b919050565b600067ffffffffffffffff821115612e2557612e24612d8f565b5b612e2e82612b9b565b9050602081019050919050565b82818337600083830152505050565b6000612e5d612e5884612e0a565b612def565b905082815260208101848484011115612e7957612e78612d8a565b5b612e84848285612e3b565b509392505050565b600082601f830112612ea157612ea0612d85565b5b8135612eb1848260208601612e4a565b91505092915050565b600060208284031215612ed057612ecf612a87565b5b600082013567ffffffffffffffff811115612eee57612eed612a8c565b5b612efa84828501612e8c565b91505092915050565b60008060408385031215612f1a57612f19612a87565b5b600083013567ffffffffffffffff811115612f3857612f37612a8c565b5b612f4485828601612e8c565b9250506020612f5585828601612c28565b9150509250929050565b600060208284031215612f7557612f74612a87565b5b6000612f8384828501612cdd565b91505092915050565b612f9581612c07565b82525050565b6000602082019050612fb06000830184612f8c565b92915050565b612fbf81612b16565b8114612fca57600080fd5b50565b600081359050612fdc81612fb6565b92915050565b60008060408385031215612ff957612ff8612a87565b5b600061300785828601612cdd565b925050602061301885828601612fcd565b9150509250929050565b600080fd5b600080fd5b60008083601f84011261304257613041612d85565b5b8235905067ffffffffffffffff81111561305f5761305e613022565b5b60208301915083600182028301111561307b5761307a613027565b5b9250929050565b600067ffffffffffffffff82111561309d5761309c612d8f565b5b602082029050602081019050919050565b60006130c16130bc84613082565b612def565b905080838252602082019050602084028301858111156130e4576130e3613027565b5b835b8181101561312b57803567ffffffffffffffff81111561310957613108612d85565b5b8086016131168982612e8c565b855260208501945050506020810190506130e6565b5050509392505050565b600082601f83011261314a57613149612d85565b5b813561315a8482602086016130ae565b91505092915050565b60008060006040848603121561317c5761317b612a87565b5b600084013567ffffffffffffffff81111561319a57613199612a8c565b5b6131a68682870161302c565b9350935050602084013567ffffffffffffffff8111156131c9576131c8612a8c565b5b6131d586828701613135565b9150509250925092565b600080602083850312156131f6576131f5612a87565b5b600083013567ffffffffffffffff81111561321457613213612a8c565b5b6132208582860161302c565b92509250509250929050565b600081519050919050565b600082825260208201905092915050565b6000819050602082019050919050565b600082825260208201905092915050565b600061327482612b4c565b61327e8185613258565b935061328e818560208601612b68565b61329781612b9b565b840191505092915050565b60006132ae8383613269565b905092915050565b6000602082019050919050565b60006132ce8261322c565b6132d88185613237565b9350836020820285016132ea85613248565b8060005b85811015613326578484038952815161330785826132a2565b9450613312836132b6565b925060208a019950506001810190506132ee565b50829750879550505050505092915050565b6000602082019050818103600083015261335281846132c3565b905092915050565b600067ffffffffffffffff82111561337557613374612d8f565b5b61337e82612b9b565b9050602081019050919050565b600061339e6133998461335a565b612def565b9050828152602081018484840111156133ba576133b9612d8a565b5b6133c5848285612e3b565b509392505050565b600082601f8301126133e2576133e1612d85565b5b81356133f284826020860161338b565b91505092915050565b6000806000806080858703121561341557613414612a87565b5b600061342387828801612cdd565b945050602061343487828801612cdd565b935050604061344587828801612c28565b925050606085013567ffffffffffffffff81111561346657613465612a8c565b5b613472878288016133cd565b91505092959194509250565b6000806040838503121561349557613494612a87565b5b60006134a385828601612cdd565b92505060206134b485828601612cdd565b9150509250929050565b7f4e487b7100000000000000000000000000000000000000000000000000000000600052602260045260246000fd5b6000600282049050600182168061350557607f821691505b60208210811415613519576135186134be565b5b50919050565b7f4552433732313a20617070726f76656420717565727920666f72206e6f6e657860008201527f697374656e7420746f6b656e0000000000000000000000000000000000000000602082015250565b600061357b602c83612b57565b91506135868261351f565b604082019050919050565b600060208201905081810360008301526135aa8161356e565b9050919050565b7f4552433732313a20617070726f76616c20746f2063757272656e74206f776e6560008201527f7200000000000000000000000000000000000000000000000000000000000000602082015250565b600061360d602183612b57565b9150613618826135b1565b604082019050919050565b6000602082019050818103600083015261363c81613600565b9050919050565b7f4552433732313a20617070726f76652063616c6c6572206973206e6f74206f7760008201527f6e6572206e6f7220617070726f76656420666f7220616c6c0000000000000000602082015250565b600061369f603883612b57565b91506136aa82613643565b604082019050919050565b600060208201905081810360008301526136ce81613692565b9050919050565b7f4552433732313a207472616e736665722063616c6c6572206973206e6f74206f60008201527f776e6572206e6f7220617070726f766564000000000000000000000000000000602082015250565b6000613731603183612b57565b915061373c826136d5565b604082019050919050565b6000602082019050818103600083015261376081613724565b9050919050565b7f4552433732313a206f776e657220717565727920666f72206e6f6e657869737460008201527f656e7420746f6b656e0000000000000000000000000000000000000000000000602082015250565b60006137c3602983612b57565b91506137ce82613767565b604082019050919050565b600060208201905081810360008301526137f2816137b6565b9050919050565b7f4552433732313a2062616c616e636520717565727920666f7220746865207a6560008201527f726f206164647265737300000000000000000000000000000000000000000000602082015250565b6000613855602a83612b57565b9150613860826137f9565b604082019050919050565b6000602082019050818103600083015261388481613848565b9050919050565b600081905092915050565b60006138a2838561388b565b93506138af838584612e3b565b82840190509392505050565b60006138c8828486613896565b91508190509392505050565b7f446f6d61696e733a204f6e6c79206f776e6572206f6620646f6d61696e20636160008201527f6e20616464206461746121210000000000000000000000000000000000000000602082015250565b6000613930602c83612b57565b915061393b826138d4565b604082019050919050565b6000602082019050818103600083015261395f81613923565b9050919050565b7f45524337323155524953746f726167653a2055524920717565727920666f722060008201527f6e6f6e6578697374656e7420746f6b656e000000000000000000000000000000602082015250565b60006139c2603183612b57565b91506139cd82613966565b604082019050919050565b600060208201905081810360008301526139f1816139b5565b9050919050565b6000613a0382612b4c565b613a0d818561388b565b9350613a1d818560208601612b68565b80840191505092915050565b6000613a3582856139f8565b9150613a4182846139f8565b91508190509392505050565b7f446f6d61696e733a20446f6d61696e206e616d6520616c72656164792074616b60008201527f656e000000000000000000000000000000000000000000000000000000000000602082015250565b6000613aa9602283612b57565b9150613ab482613a4d565b604082019050919050565b60006020820190508181036000830152613ad881613a9c565b9050919050565b7f446f6d61696e733a20496e73756666696369656e74204d617469632070616964600082015250565b6000613b15602083612b57565b9150613b2082613adf565b602082019050919050565b60006020820190508181036000830152613b4481613b08565b9050919050565b7f2e00000000000000000000000000000000000000000000000000000000000000600082015250565b6000613b8160018361388b565b9150613b8c82613b4b565b600182019050919050565b60008190508160005260206000209050919050565b60008154613bb9816134ed565b613bc3818661388b565b94506001821660008114613bde5760018114613bef57613c22565b60ff19831686528186019350613c22565b613bf885613b97565b60005b83811015613c1a57815481890152600182019150602081019050613bfb565b838801955050505b50505092915050565b6000613c38828587613896565b9150613c4382613b74565b9150613c4f8284613bac565b9150819050949350505050565b6000613c688286613bac565b9150613c7482856139f8565b9150613c808284613bac565b9150819050949350505050565b7f7b226e616d65223a202200000000000000000000000000000000000000000000600082015250565b6000613cc3600a8361388b565b9150613cce82613c8d565b600a82019050919050565b7f222c20226465736372697074696f6e223a20224120646f6d61696e206f6e207460008201527f6865205368696e65206e616d652073657276696365222c2022696d616765223a60208201527f2022646174613a696d6167652f7376672b786d6c3b6261736536342c00000000604082015250565b6000613d5b605c8361388b565b9150613d6682613cd9565b605c82019050919050565b7f222c226c656e677468223a220000000000000000000000000000000000000000600082015250565b6000613da7600c8361388b565b9150613db282613d71565b600c82019050919050565b7f227d000000000000000000000000000000000000000000000000000000000000600082015250565b6000613df360028361388b565b9150613dfe82613dbd565b600282019050919050565b6000613e1482613cb6565b9150613e2082866139f8565b9150613e2b82613d4e565b9150613e3782856139f8565b9150613e4282613d9a565b9150613e4e82846139f8565b9150613e5982613de6565b9150819050949350505050565b7f646174613a6170706c69636174696f6e2f6a736f6e3b6261736536342c000000600082015250565b6000613e9c601d8361388b565b9150613ea782613e66565b601d82019050919050565b6000613ebd82613e8f565b9150613ec982846139f8565b915081905092915050565b7f446f6d61696e733a20456e74657220612076616c696420646f6d61696e206e6160008201527f6d65000000000000000000000000000000000000000000000000000000000000602082015250565b6000613f30602283612b57565b9150613f3b82613ed4565b604082019050919050565b60006020820190508181036000830152613f5f81613f23565b9050919050565b60006040820190508181036000830152613f808185612bac565b90508181036020830152613f948184612bac565b90509392505050565b7f4552433732313a206f70657261746f7220717565727920666f72206e6f6e657860008201527f697374656e7420746f6b656e0000000000000000000000000000000000000000602082015250565b6000613ff9602c83612b57565b915061400482613f9d565b604082019050919050565b6000602082019050818103600083015261402881613fec565b9050919050565b7f4552433732313a207472616e736665722066726f6d20696e636f72726563742060008201527f6f776e6572000000000000000000000000000000000000000000000000000000602082015250565b600061408b602583612b57565b91506140968261402f565b604082019050919050565b600060208201905081810360008301526140ba8161407e565b9050919050565b7f4552433732313a207472616e7366657220746f20746865207a65726f2061646460008201527f7265737300000000000000000000000000000000000000000000000000000000602082015250565b600061411d602483612b57565b9150614128826140c1565b604082019050919050565b6000602082019050818103600083015261414c81614110565b9050919050565b7f4e487b7100000000000000000000000000000000000000000000000000000000600052601160045260246000fd5b600061418d82612c07565b915061419883612c07565b9250828210156141ab576141aa614153565b5b828203905092915050565b60006141c182612c07565b91506141cc83612c07565b9250827fffffffffffffffffffffffffffffffffffffffffffffffffffffffffffffffff0382111561420157614200614153565b5b828201905092915050565b7f4552433732313a20617070726f766520746f2063616c6c657200000000000000600082015250565b6000614242601983612b57565b915061424d8261420c565b602082019050919050565b6000602082019050818103600083015261427181614235565b9050919050565b7f4552433732313a207472616e7366657220746f206e6f6e20455243373231526560008201527f63656976657220696d706c656d656e7465720000000000000000000000000000602082015250565b60006142d4603283612b57565b91506142df82614278565b604082019050919050565b60006020820190508181036000830152614303816142c7565b9050919050565b7f4552433732314d657461646174613a2055524920717565727920666f72206e6f60008201527f6e6578697374656e7420746f6b656e0000000000000000000000000000000000602082015250565b6000614366602f83612b57565b91506143718261430a565b604082019050919050565b6000602082019050818103600083015261439581614359565b9050919050565b7f4e487b7100000000000000000000000000000000000000000000000000000000600052603260045260246000fd5b60006143d682612c07565b91507fffffffffffffffffffffffffffffffffffffffffffffffffffffffffffffffff82141561440957614408614153565b5b600182019050919050565b7f4e487b7100000000000000000000000000000000000000000000000000000000600052601260045260246000fd5b600061444e82612c07565b915061445983612c07565b92508261446957614468614414565b5b828204905092915050565b600061447f82612c07565b915061448a83612c07565b92508261449a57614499614414565b5b828206905092915050565b600060808201905081810360008301526144bf8187612bac565b905081810360208301526144d38186612bac565b905081810360408301526144e78185612bac565b90506144f66060830184612f8c565b95945050505050565b600061450a82612c07565b915061451583612c07565b9250817fffffffffffffffffffffffffffffffffffffffffffffffffffffffffffffffff048311821515161561454e5761454d614153565b5b828202905092915050565b7f45524337323155524953746f726167653a2055524920736574206f66206e6f6e60008201527f6578697374656e7420746f6b656e000000000000000000000000000000000000602082015250565b60006145b5602e83612b57565b91506145c082614559565b604082019050919050565b600060208201905081810360008301526145e4816145a8565b9050919050565b60006040820190506146006000830185612c9c565b81810360208301526146128184612bac565b90509392505050565b600081519050919050565b600082825260208201905092915050565b60006146428261461b565b61464c8185614626565b935061465c818560208601612b68565b61466581612b9b565b840191505092915050565b60006080820190506146856000830187612c9c565b6146926020830186612c9c565b61469f6040830185612f8c565b81810360608301526146b18184614637565b905095945050505050565b6000815190506146cb81612abd565b92915050565b6000602082840312156146e7576146e6612a87565b5b60006146f5848285016146bc565b91505092915050565b7f4552433732313a206d696e7420746f20746865207a65726f2061646472657373600082015250565b6000614734602083612b57565b915061473f826146fe565b602082019050919050565b6000602082019050818103600083015261476381614727565b9050919050565b7f4552433732313a20746f6b656e20616c7265616479206d696e74656400000000600082015250565b60006147a0601c83612b57565b91506147ab8261476a565b602082019050919050565b600060208201905081810360008301526147cf81614793565b905091905056fe46696e616c20746f6b656e2075726920666f722074686973206e66742069733a200a2d2d2d2d2d2d2d2d2d2d2d2d2d2d2d2d2d2d2d2d2d2d2d2d2d2d2d2d2d2d2d2d2d2d2d2d2d2d2d2d2d2d2d2d2d2d2d2d2d2d2d2d2d2d2d2d5265676973746572696e672025732e2573206f6e2074686520636f6e7472616374207769746820746f6b656e49442025644142434445464748494a4b4c4d4e4f505152535455565758595a6162636465666768696a6b6c6d6e6f707172737475767778797a303132333435363738392b2fa264697066735822122024bcb06361f368f8c40dc3d52b04b2864d07e04c62744676d6a9a513f02b49cf64736f6c634300080a00333c73766720786d6c6e733d22687474703a2f2f7777772e77332e6f72672f323030302f737667222077696474683d2232373022206865696768743d22323730222066696c6c3d226e6f6e65223e3c706174682066696c6c3d2275726c282342292220643d224d302030683237307632373048307a222f3e3c646566733e3c66696c7465722069643d22412220636f6c6f722d696e746572706f6c6174696f6e2d66696c746572733d2273524742222066696c746572556e6974733d227573657253706163654f6e55736522206865696768743d22323730222077696474683d22323730223e3c666544726f70536861646f772064783d2230222064793d22312220737464446576696174696f6e3d22322220666c6f6f642d6f7061636974793d222e323235222077696474683d223230302522206865696768743d2232303025222f3e3c2f66696c7465723e3c2f646566733e3c7061746820643d224d37322e3836332034322e393439632d2e3636382d2e3338372d312e3432362d2e35392d322e3139372d2e3539732d312e3532392e3230342d322e3139372e35396c2d31302e30383120362e3033322d362e383520332e3933342d31302e30383120362e303332632d2e3636382e3338372d312e3432362e35392d322e3139372e3539732d312e3532392d2e3230342d322e3139372d2e35396c2d382e3031332d342e37323161342e353220342e35322030203020312d312e3538392d312e363136632d2e3338342d2e3636352d2e3539342d312e3431382d2e3630382d322e313837762d392e3331632d2e3031332d2e3737352e3138352d312e3533382e3537322d322e32303861342e323520342e323520302030203120312e3632352d312e3539356c372e3838342d342e3539632e3636382d2e33383720312e3432362d2e353920322e3139372d2e353973312e3532392e32303420322e3139372e35396c372e38383420342e353961342e353220342e353220302030203120312e35383920312e363136632e3338342e3636352e35393420312e3431382e36303820322e31383776362e3033326c362e38352d342e303635762d362e303332632e3031332d2e3737352d2e3138352d312e3533382d2e3537322d322e32303861342e323520342e32352030203020302d312e3632352d312e3539354c34312e3435362032342e3539632d2e3636382d2e3338372d312e3432362d2e35392d322e3139372d2e3539732d312e3532392e3230342d322e3139372e35396c2d31342e38363420382e36353561342e323520342e32352030203020302d312e36323520312e353935632d2e3338372e36372d2e35383520312e3433342d2e35373220322e3230387631372e343431632d2e3031332e3737352e31383520312e3533382e35373220322e32303861342e323520342e323520302030203020312e36323520312e3539356c31342e38363420382e363535632e3636382e33383720312e3432362e353920322e3139372e353973312e3532392d2e32303420322e3139372d2e35396c31302e3038312d352e39303120362e38352d342e3036352031302e3038312d352e393031632e3636382d2e33383720312e3432362d2e353920322e3139372d2e353973312e3532392e32303420322e3139372e35396c372e38383420342e353961342e353220342e353220302030203120312e35383920312e363136632e3338342e3636352e35393420312e3431382e36303820322e31383776392e333131632e3031332e3737352d2e31383520312e3533382d2e35373220322e32303861342e323520342e32352030203020312d312e36323520312e3539356c2d372e38383420342e373231632d2e3636382e3338372d312e3432362e35392d322e3139372e3539732d312e3532392d2e3230342d322e3139372d2e35396c2d372e3838342d342e353961342e353220342e35322030203020312d312e3538392d312e363136632d2e3338352d2e3636352d2e3539342d312e3431382d2e3630382d322e313837762d362e3033326c2d362e383520342e30363576362e303332632d2e3031332e3737352e31383520312e3533382e35373220322e32303861342e323520342e323520302030203020312e36323520312e3539356c31342e38363420382e363535632e3636382e33383720312e3432362e353920322e3139372e353973312e3532392d2e32303420322e3139372d2e35396c31342e3836342d382e363535632e3635372d2e33393420312e3230342d2e393520312e3538392d312e363136732e3539342d312e3431382e3630392d322e3138375635352e353338632e3031332d2e3737352d2e3138352d312e3533382d2e3537322d322e32303861342e323520342e32352030203020302d312e3632352d312e3539356c2d31342e3939332d382e3738367a222066696c6c3d2223666666222f3e3c646566733e3c6c696e6561724772616469656e742069643d2242222078313d2230222079313d2230222078323d22323730222079323d2232373022206772616469656e74556e6974733d227573657253706163654f6e557365223e3c73746f702073746f702d636f6c6f723d2223636235656565222f3e3c73746f70206f66667365743d2231222073746f702d636f6c6f723d2223306364376534222073746f702d6f7061636974793d222e3939222f3e3c2f6c696e6561724772616469656e743e3c2f646566733e3c7465787420783d2233322e352220793d223233312220666f6e742d73697a653d223237222066696c6c3d2223666666222066696c7465723d2275726c282341292220666f6e742d66616d696c793d22506c7573204a616b617274612053616e732c44656a6156752053616e732c4e6f746f20436f6c6f7220456d6f6a692c4170706c6520436f6c6f7220456d6f6a692c73616e732d73657269662220666f6e742d7765696768743d22626f6c64223e",
    "linkReferences": {},
    "deployedLinkReferences": {}
}